{
  "contractName": "LushivToken",
  "abi": [
    {
      "inputs": [],
      "name": "totalSupply",
      "outputs": [
        {
          "internalType": "uint256",
          "name": "",
          "type": "uint256"
        }
      ],
      "stateMutability": "view",
      "type": "function",
      "constant": true
    },
    {
      "inputs": [],
      "name": "LushivTokens",
      "outputs": [],
      "stateMutability": "nonpayable",
      "type": "function"
    }
  ],
  "bytecode": "0x608060405234801561001057600080fd5b5060d18061001f6000396000f3fe6080604052348015600f57600080fd5b506004361060325760003560e01c806318160ddd146037578063f482961f146051575b600080fd5b603d6059565b604051604891906082565b60405180910390f35b6057605f565b005b60005481565b620f4240600081905550565b6000819050919050565b607c81606b565b82525050565b6000602082019050609560008301846075565b9291505056fea2646970667358221220fd4dc1c0cd6932376c4a7dcfadd0a1cac015acbff01c403ad769658d164c697d64736f6c634300080b0033",
  "immutableReferences": {},
  "source": "// SPDX-License-Identifier: MIT\n\npragma solidity >=0.4.22 <0.9.0;\n\ncontract LushivToken {\n    // constructor ( set the value of netwrok)\n    // set the total number of token\n    // read the total number of token\n    \n    uint256 public totalSupply;\n    function LushivTokens () public {\n        //create varible\n        totalSupply = 1000000;\n\n    }\n}\n",
  "sourcePath": "/home/programmer-0/web3/lushiv-token/contracts/LushivToken.sol",
  "compiler": {
    "name": "solc",
    "version": "0.8.11+commit.d7f03943.Emscripten.clang"
  },
  "schemaVersion": "3.4.4",
  "updatedAt": "2022-01-18T09:46:16.622Z",
  "networkType": "ethereum",
  "devdoc": {
    "kind": "dev",
    "methods": {},
    "version": 1
  },
  "userdoc": {
    "kind": "user",
    "methods": {},
    "version": 1
  }
}